{
  "_format": "hh-sol-artifact-1",
  "contractName": "FreelanceDapp",
  "sourceName": "contracts/FreelanceDapp.sol",
  "abi": [
    {
      "anonymous": false,
      "inputs": [
        {
          "indexed": false,
          "internalType": "uint256",
          "name": "projectId",
          "type": "uint256"
        },
        {
          "indexed": false,
          "internalType": "address",
          "name": "freelancer",
          "type": "address"
        }
      ],
      "name": "BidAccepted",
      "type": "event"
    },
    {
      "anonymous": false,
      "inputs": [
        {
          "indexed": false,
          "internalType": "uint256",
          "name": "projectId",
          "type": "uint256"
        },
        {
          "indexed": false,
          "internalType": "address",
          "name": "freelancer",
          "type": "address"
        },
        {
          "indexed": false,
          "internalType": "uint256",
          "name": "amount",
          "type": "uint256"
        }
      ],
      "name": "BidPlaced",
      "type": "event"
    },
    {
      "anonymous": false,
      "inputs": [
        {
          "indexed": false,
          "internalType": "uint256",
          "name": "projectId",
          "type": "uint256"
        }
      ],
      "name": "ProjectApprovalCanceled",
      "type": "event"
    },
    {
      "anonymous": false,
      "inputs": [
        {
          "indexed": false,
          "internalType": "uint256",
          "name": "projectId",
          "type": "uint256"
        }
      ],
      "name": "ProjectApproved",
      "type": "event"
    },
    {
      "anonymous": false,
      "inputs": [
        {
          "indexed": false,
          "internalType": "uint256",
          "name": "projectId",
          "type": "uint256"
        }
      ],
      "name": "ProjectCompleted",
      "type": "event"
    },
    {
      "anonymous": false,
      "inputs": [
        {
          "indexed": false,
          "internalType": "uint256",
          "name": "projectId",
          "type": "uint256"
        },
        {
          "indexed": false,
          "internalType": "address",
          "name": "client",
          "type": "address"
        },
        {
          "indexed": false,
          "internalType": "string",
          "name": "title",
          "type": "string"
        },
        {
          "indexed": false,
          "internalType": "string",
          "name": "description",
          "type": "string"
        },
        {
          "indexed": false,
          "internalType": "uint256",
          "name": "budget",
          "type": "uint256"
        }
      ],
      "name": "ProjectCreated",
      "type": "event"
    },
    {
      "inputs": [
        {
          "internalType": "uint256",
          "name": "_projectId",
          "type": "uint256"
        },
        {
          "internalType": "uint256",
          "name": "_bidIndex",
          "type": "uint256"
        }
      ],
      "name": "acceptBid",
      "outputs": [],
      "stateMutability": "nonpayable",
      "type": "function"
    },
    {
      "inputs": [
        {
          "internalType": "uint256",
          "name": "_projectId",
          "type": "uint256"
        }
      ],
      "name": "approveProject",
      "outputs": [],
      "stateMutability": "nonpayable",
      "type": "function"
    },
    {
      "inputs": [
        {
          "internalType": "uint256",
          "name": "_projectId",
          "type": "uint256"
        }
      ],
      "name": "cancelApproval",
      "outputs": [],
      "stateMutability": "nonpayable",
      "type": "function"
    },
    {
      "inputs": [
        {
          "internalType": "uint256",
          "name": "_projectId",
          "type": "uint256"
        }
      ],
      "name": "cancelProject",
      "outputs": [],
      "stateMutability": "nonpayable",
      "type": "function"
    },
    {
      "inputs": [
        {
          "internalType": "string",
          "name": "_title",
          "type": "string"
        },
        {
          "internalType": "string",
          "name": "_description",
          "type": "string"
        },
        {
          "internalType": "uint256",
          "name": "_amount",
          "type": "uint256"
        }
      ],
      "name": "createProject",
      "outputs": [],
      "stateMutability": "nonpayable",
      "type": "function"
    },
    {
      "inputs": [
        {
          "internalType": "address",
          "name": "_freelancer",
          "type": "address"
        }
      ],
      "name": "getAllBidsByFreelancer",
      "outputs": [
        {
          "components": [
            {
              "internalType": "address",
              "name": "freelancer",
              "type": "address"
            },
            {
              "internalType": "uint256",
              "name": "amount",
              "type": "uint256"
            },
            {
              "internalType": "bool",
              "name": "accepted",
              "type": "bool"
            },
            {
              "internalType": "string",
              "name": "comment",
              "type": "string"
            }
          ],
          "internalType": "struct FreelanceDapp.Bid[]",
          "name": "",
          "type": "tuple[]"
        }
      ],
      "stateMutability": "view",
      "type": "function"
    },
    {
      "inputs": [],
      "name": "getAllProjects",
      "outputs": [
        {
          "components": [
            {
              "internalType": "address",
              "name": "client",
              "type": "address"
            },
            {
              "internalType": "string",
              "name": "title",
              "type": "string"
            },
            {
              "internalType": "string",
              "name": "description",
              "type": "string"
            },
            {
              "internalType": "uint256",
              "name": "budget",
              "type": "uint256"
            },
            {
              "internalType": "bool",
              "name": "completed",
              "type": "bool"
            },
            {
              "internalType": "address",
              "name": "acceptedFreelancer",
              "type": "address"
            },
            {
              "internalType": "uint256",
              "name": "completionTimestamp",
              "type": "uint256"
            },
            {
              "internalType": "bool",
              "name": "approved",
              "type": "bool"
            },
            {
              "internalType": "uint256",
              "name": "approvalTimestamp",
              "type": "uint256"
            }
          ],
          "internalType": "struct FreelanceDapp.Project[]",
          "name": "",
          "type": "tuple[]"
        }
      ],
      "stateMutability": "view",
      "type": "function"
    },
    {
      "inputs": [
        {
          "internalType": "address",
          "name": "_client",
          "type": "address"
        }
      ],
      "name": "getAllProjectsByClient",
      "outputs": [
        {
          "components": [
            {
              "internalType": "address",
              "name": "client",
              "type": "address"
            },
            {
              "internalType": "string",
              "name": "title",
              "type": "string"
            },
            {
              "internalType": "string",
              "name": "description",
              "type": "string"
            },
            {
              "internalType": "uint256",
              "name": "budget",
              "type": "uint256"
            },
            {
              "internalType": "bool",
              "name": "completed",
              "type": "bool"
            },
            {
              "internalType": "address",
              "name": "acceptedFreelancer",
              "type": "address"
            },
            {
              "internalType": "uint256",
              "name": "completionTimestamp",
              "type": "uint256"
            },
            {
              "internalType": "bool",
              "name": "approved",
              "type": "bool"
            },
            {
              "internalType": "uint256",
              "name": "approvalTimestamp",
              "type": "uint256"
            }
          ],
          "internalType": "struct FreelanceDapp.Project[]",
          "name": "",
          "type": "tuple[]"
        }
      ],
      "stateMutability": "view",
      "type": "function"
    },
    {
      "inputs": [
        {
          "internalType": "uint256",
          "name": "_projectId",
          "type": "uint256"
        },
        {
          "internalType": "uint256",
          "name": "_bidIndex",
          "type": "uint256"
        }
      ],
      "name": "getBid",
      "outputs": [
        {
          "internalType": "address",
          "name": "freelancer",
          "type": "address"
        },
        {
          "internalType": "uint256",
          "name": "amount",
          "type": "uint256"
        },
        {
          "internalType": "bool",
          "name": "accepted",
          "type": "bool"
        }
      ],
      "stateMutability": "view",
      "type": "function"
    },
    {
      "inputs": [
        {
          "internalType": "uint256",
          "name": "_projectId",
          "type": "uint256"
        }
      ],
      "name": "getBidsByProjectId",
      "outputs": [
        {
          "components": [
            {
              "internalType": "address",
              "name": "freelancer",
              "type": "address"
            },
            {
              "internalType": "uint256",
              "name": "amount",
              "type": "uint256"
            },
            {
              "internalType": "bool",
              "name": "accepted",
              "type": "bool"
            },
            {
              "internalType": "string",
              "name": "comment",
              "type": "string"
            }
          ],
          "internalType": "struct FreelanceDapp.Bid[]",
          "name": "",
          "type": "tuple[]"
        }
      ],
      "stateMutability": "view",
      "type": "function"
    },
    {
      "inputs": [
        {
          "internalType": "uint256",
          "name": "_projectId",
          "type": "uint256"
        }
      ],
      "name": "getBidsCount",
      "outputs": [
        {
          "internalType": "uint256",
          "name": "",
          "type": "uint256"
        }
      ],
      "stateMutability": "view",
      "type": "function"
    },
    {
      "inputs": [
        {
          "internalType": "uint256",
          "name": "_projectId",
          "type": "uint256"
        }
      ],
      "name": "getProject",
      "outputs": [
        {
          "components": [
            {
              "internalType": "address",
              "name": "client",
              "type": "address"
            },
            {
              "internalType": "string",
              "name": "title",
              "type": "string"
            },
            {
              "internalType": "string",
              "name": "description",
              "type": "string"
            },
            {
              "internalType": "uint256",
              "name": "budget",
              "type": "uint256"
            },
            {
              "internalType": "bool",
              "name": "completed",
              "type": "bool"
            },
            {
              "internalType": "address",
              "name": "acceptedFreelancer",
              "type": "address"
            },
            {
              "internalType": "uint256",
              "name": "completionTimestamp",
              "type": "uint256"
            },
            {
              "internalType": "bool",
              "name": "approved",
              "type": "bool"
            },
            {
              "internalType": "uint256",
              "name": "approvalTimestamp",
              "type": "uint256"
            }
          ],
          "internalType": "struct FreelanceDapp.Project",
          "name": "",
          "type": "tuple"
        }
      ],
      "stateMutability": "view",
      "type": "function"
    },
    {
      "inputs": [
        {
          "internalType": "uint256",
          "name": "_projectId",
          "type": "uint256"
        }
      ],
      "name": "markProjectCompleted",
      "outputs": [],
      "stateMutability": "nonpayable",
      "type": "function"
    },
    {
      "inputs": [
        {
          "internalType": "uint256",
          "name": "_projectId",
          "type": "uint256"
        },
        {
          "internalType": "uint256",
          "name": "_amount",
          "type": "uint256"
        },
        {
          "internalType": "string",
          "name": "_comment",
          "type": "string"
        }
      ],
      "name": "placeBid",
      "outputs": [],
      "stateMutability": "nonpayable",
      "type": "function"
    },
    {
      "inputs": [
        {
          "internalType": "uint256",
          "name": "",
          "type": "uint256"
        },
        {
          "internalType": "uint256",
          "name": "",
          "type": "uint256"
        }
      ],
      "name": "projectBids",
      "outputs": [
        {
          "internalType": "address",
          "name": "freelancer",
          "type": "address"
        },
        {
          "internalType": "uint256",
          "name": "amount",
          "type": "uint256"
        },
        {
          "internalType": "bool",
          "name": "accepted",
          "type": "bool"
        },
        {
          "internalType": "string",
          "name": "comment",
          "type": "string"
        }
      ],
      "stateMutability": "view",
      "type": "function"
    },
    {
      "inputs": [],
      "name": "projectCount",
      "outputs": [
        {
          "internalType": "uint256",
          "name": "",
          "type": "uint256"
        }
      ],
      "stateMutability": "view",
      "type": "function"
    },
    {
      "inputs": [
        {
          "internalType": "uint256",
          "name": "",
          "type": "uint256"
        }
      ],
      "name": "projects",
      "outputs": [
        {
          "internalType": "address",
          "name": "client",
          "type": "address"
        },
        {
          "internalType": "string",
          "name": "title",
          "type": "string"
        },
        {
          "internalType": "string",
          "name": "description",
          "type": "string"
        },
        {
          "internalType": "uint256",
          "name": "budget",
          "type": "uint256"
        },
        {
          "internalType": "bool",
          "name": "completed",
          "type": "bool"
        },
        {
          "internalType": "address",
          "name": "acceptedFreelancer",
          "type": "address"
        },
        {
          "internalType": "uint256",
          "name": "completionTimestamp",
          "type": "uint256"
        },
        {
          "internalType": "bool",
          "name": "approved",
          "type": "bool"
        },
        {
          "internalType": "uint256",
          "name": "approvalTimestamp",
          "type": "uint256"
        }
      ],
      "stateMutability": "view",
      "type": "function"
    }
  ],
  "bytecode": "0x608060405234801561001057600080fd5b5061388a806100206000396000f3fe608060405234801561001057600080fd5b506004361061010b5760003560e01c80634862ce47116100a2578063688053a211610071578063688053a2146102e757806380d0382914610317578063cb5b7ca014610335578063f0f3f2c814610351578063fc69d836146103815761010b565b80634862ce47146102365780635449fe0314610269578063582c7ffd146102855780635be04baf146102b75761010b565b806324b5ad15116100de57806324b5ad151461019c57806336fbad26146101cc5780634008f9c0146101ea57806344739b521461021a5761010b565b806302e9d5e414610110578063107046bd1461012c57806323c55448146101645780632494114714610180575b600080fd5b61012a6004803603810190610125919061298b565b61039d565b005b61014660048036038101906101419190612962565b61073b565b60405161015b99989796959493929190613139565b60405180910390f35b61017e600480360381019061017991906128e3565b6108f3565b005b61019a60048036038101906101959190612962565b610b47565b005b6101b660048036038101906101b191906128ba565b610c80565b6040516101c39190613279565b60405180910390f35b6101d46110cb565b6040516101e1919061341d565b60405180910390f35b61020460048036038101906101ff9190612962565b6110d1565b604051610211919061341d565b60405180910390f35b610234600480360381019061022f91906129c7565b6110f1565b005b610250600480360381019061024b919061298b565b611383565b604051610260949392919061320b565b60405180910390f35b610283600480360381019061027e9190612962565b611485565b005b61029f600480360381019061029a919061298b565b611659565b6040516102ae939291906131d4565b60405180910390f35b6102d160048036038101906102cc9190612962565b6117ef565b6040516102de9190613257565b60405180910390f35b61030160048036038101906102fc91906128ba565b6119b3565b60405161030e9190613257565b60405180910390f35b61031f611e25565b60405161032c9190613279565b60405180910390f35b61034f600480360381019061034a9190612962565b612164565b005b61036b60048036038101906103669190612962565b6122ee565b60405161037891906133fb565b60405180910390f35b61039b60048036038101906103969190612962565b61253f565b005b8160008082815260200190815260200160002060000160009054906101000a900473ffffffffffffffffffffffffffffffffffffffff1673ffffffffffffffffffffffffffffffffffffffff163373ffffffffffffffffffffffffffffffffffffffff1614610441576040517f08c379a0000000000000000000000000000000000000000000000000000000008152600401610438906132db565b60405180910390fd5b60016000848152602001908152602001600020805490508210610499576040517f08c379a00000000000000000000000000000000000000000000000000000000081526004016104909061339b565b60405180910390fd5b600073ffffffffffffffffffffffffffffffffffffffff1660008085815260200190815260200160002060040160019054906101000a900473ffffffffffffffffffffffffffffffffffffffff1673ffffffffffffffffffffffffffffffffffffffff161461053d576040517f08c379a00000000000000000000000000000000000000000000000000000000081526004016105349061331b565b60405180910390fd5b60018060008581526020019081526020016000208381548110610589577f4e487b7100000000000000000000000000000000000000000000000000000000600052603260045260246000fd5b906000526020600020906004020160020160006101000a81548160ff0219169083151502179055506001600084815260200190815260200160002082815481106105fc577f4e487b7100000000000000000000000000000000000000000000000000000000600052603260045260246000fd5b906000526020600020906004020160000160009054906101000a900473ffffffffffffffffffffffffffffffffffffffff1660008085815260200190815260200160002060040160016101000a81548173ffffffffffffffffffffffffffffffffffffffff021916908373ffffffffffffffffffffffffffffffffffffffff1602179055507f0b7e3c2d0983fdcbfa4fcb08da6f6d862e83ce066e7bbc783163da9753a829aa836001600086815260200190815260200160002084815481106106ee577f4e487b7100000000000000000000000000000000000000000000000000000000600052603260045260246000fd5b906000526020600020906004020160000160009054906101000a900473ffffffffffffffffffffffffffffffffffffffff1660405161072e929190613438565b60405180910390a1505050565b60006020528060005260406000206000915090508060000160009054906101000a900473ffffffffffffffffffffffffffffffffffffffff16908060010180546107849061370d565b80601f01602080910402602001604051908101604052809291908181526020018280546107b09061370d565b80156107fd5780601f106107d2576101008083540402835291602001916107fd565b820191906000526020600020905b8154815290600101906020018083116107e057829003601f168201915b5050505050908060020180546108129061370d565b80601f016020809104026020016040519081016040528092919081815260200182805461083e9061370d565b801561088b5780601f106108605761010080835404028352916020019161088b565b820191906000526020600020905b81548152906001019060200180831161086e57829003601f168201915b5050505050908060030154908060040160009054906101000a900460ff16908060040160019054906101000a900473ffffffffffffffffffffffffffffffffffffffff16908060050154908060060160009054906101000a900460ff16908060070154905089565b60008111610936576040517f08c379a000000000000000000000000000000000000000000000000000000000815260040161092d9061337b565b60405180910390fd5b600260008154809291906109499061373f565b91905055506040518061012001604052803373ffffffffffffffffffffffffffffffffffffffff168152602001848152602001838152602001828152602001600015158152602001600073ffffffffffffffffffffffffffffffffffffffff168152602001600081526020016000151581526020016000815250600080600254815260200190815260200160002060008201518160000160006101000a81548173ffffffffffffffffffffffffffffffffffffffff021916908373ffffffffffffffffffffffffffffffffffffffff1602179055506020820151816001019080519060200190610a3a9291906126c9565b506040820151816002019080519060200190610a579291906126c9565b506060820151816003015560808201518160040160006101000a81548160ff02191690831515021790555060a08201518160040160016101000a81548173ffffffffffffffffffffffffffffffffffffffff021916908373ffffffffffffffffffffffffffffffffffffffff16021790555060c0820151816005015560e08201518160060160006101000a81548160ff02191690831515021790555061010082015181600701559050507f3c3fbb6a154e75fbef89d966d453c10b2ecc4dba66a0b8a755d720fae33a8fda60025433858585604051610b3a959493929190613461565b60405180910390a1505050565b8060008082815260200190815260200160002060040160019054906101000a900473ffffffffffffffffffffffffffffffffffffffff1673ffffffffffffffffffffffffffffffffffffffff163373ffffffffffffffffffffffffffffffffffffffff1614610beb576040517f08c379a0000000000000000000000000000000000000000000000000000000008152600401610be29061335b565b60405180910390fd5b60008083815260200190815260200160002060040160009054906101000a900460ff1615610c4e576040517f08c379a0000000000000000000000000000000000000000000000000000000008152600401610c45906133bb565b60405180910390fd5b600160008084815260200190815260200160002060040160006101000a81548160ff0219169083151502179055505050565b6060600080600190505b6002548111610d1e578373ffffffffffffffffffffffffffffffffffffffff1660008083815260200190815260200160002060000160009054906101000a900473ffffffffffffffffffffffffffffffffffffffff1673ffffffffffffffffffffffffffffffffffffffff161415610d0b578180610d079061373f565b9250505b8080610d169061373f565b915050610c8a565b5060008167ffffffffffffffff811115610d61577f4e487b7100000000000000000000000000000000000000000000000000000000600052604160045260246000fd5b604051908082528060200260200182016040528015610d9a57816020015b610d8761274f565b815260200190600190039081610d7f5790505b509050600080600190505b60025481116110bf578573ffffffffffffffffffffffffffffffffffffffff1660008083815260200190815260200160002060000160009054906101000a900473ffffffffffffffffffffffffffffffffffffffff1673ffffffffffffffffffffffffffffffffffffffff1614156110ac57600080828152602001908152602001600020604051806101200160405290816000820160009054906101000a900473ffffffffffffffffffffffffffffffffffffffff1673ffffffffffffffffffffffffffffffffffffffff1673ffffffffffffffffffffffffffffffffffffffff168152602001600182018054610e9b9061370d565b80601f0160208091040260200160405190810160405280929190818152602001828054610ec79061370d565b8015610f145780601f10610ee957610100808354040283529160200191610f14565b820191906000526020600020905b815481529060010190602001808311610ef757829003601f168201915b50505050508152602001600282018054610f2d9061370d565b80601f0160208091040260200160405190810160405280929190818152602001828054610f599061370d565b8015610fa65780601f10610f7b57610100808354040283529160200191610fa6565b820191906000526020600020905b815481529060010190602001808311610f8957829003601f168201915b50505050508152602001600382015481526020016004820160009054906101000a900460ff161515151581526020016004820160019054906101000a900473ffffffffffffffffffffffffffffffffffffffff1673ffffffffffffffffffffffffffffffffffffffff1673ffffffffffffffffffffffffffffffffffffffff168152602001600582015481526020016006820160009054906101000a900460ff16151515158152602001600782015481525050838381518110611092577f4e487b7100000000000000000000000000000000000000000000000000000000600052603260045260246000fd5b602002602001018190525081806110a89061373f565b9250505b80806110b79061373f565b915050610da5565b50819350505050919050565b60025481565b600060016000838152602001908152602001600020805490509050919050565b600254831115611136576040517f08c379a000000000000000000000000000000000000000000000000000000000815260040161112d906133db565b60405180910390fd5b60008084815260200190815260200160002060040160009054906101000a900460ff1615611199576040517f08c379a0000000000000000000000000000000000000000000000000000000008152600401611190906133bb565b60405180910390fd5b60008084815260200190815260200160002060000160009054906101000a900473ffffffffffffffffffffffffffffffffffffffff1673ffffffffffffffffffffffffffffffffffffffff163373ffffffffffffffffffffffffffffffffffffffff16141561123d576040517f08c379a0000000000000000000000000000000000000000000000000000000008152600401611234906132bb565b60405180910390fd5b6001600084815260200190815260200160002060405180608001604052803373ffffffffffffffffffffffffffffffffffffffff16815260200184815260200160001515815260200183815250908060018154018082558091505060019003906000526020600020906004020160009091909190915060008201518160000160006101000a81548173ffffffffffffffffffffffffffffffffffffffff021916908373ffffffffffffffffffffffffffffffffffffffff1602179055506020820151816001015560408201518160020160006101000a81548160ff02191690831515021790555060608201518160030190805190602001906113409291906126c9565b5050507f0e54eff26401bf69b81b26f60bd85ef47f5d85275c1d268d84f68d6897431c47833384604051611376939291906134c2565b60405180910390a1505050565b6001602052816000526040600020818154811061139f57600080fd5b9060005260206000209060040201600091509150508060000160009054906101000a900473ffffffffffffffffffffffffffffffffffffffff16908060010154908060020160009054906101000a900460ff16908060030180546114029061370d565b80601f016020809104026020016040519081016040528092919081815260200182805461142e9061370d565b801561147b5780601f106114505761010080835404028352916020019161147b565b820191906000526020600020905b81548152906001019060200180831161145e57829003601f168201915b5050505050905084565b8060008082815260200190815260200160002060000160009054906101000a900473ffffffffffffffffffffffffffffffffffffffff1673ffffffffffffffffffffffffffffffffffffffff163373ffffffffffffffffffffffffffffffffffffffff1614611529576040517f08c379a0000000000000000000000000000000000000000000000000000000008152600401611520906132db565b60405180910390fd5b60008083815260200190815260200160002060060160009054906101000a900460ff1661158b576040517f08c379a00000000000000000000000000000000000000000000000000000000081526004016115829061329b565b60405180910390fd5b610e10600080848152602001908152602001600020600701546115ae91906135f9565b4211156115f0576040517f08c379a00000000000000000000000000000000000000000000000000000000081526004016115e79061333b565b60405180910390fd5b600080600084815260200190815260200160002060060160006101000a81548160ff0219169083151502179055507f5e228a5dfdd125100b53add2ca26c5f16afbaa6dff4e586180aa00ae16f3192c8260405161164d919061341d565b60405180910390a15050565b6000806000806001600087815260200190815260200160002085815481106116aa577f4e487b7100000000000000000000000000000000000000000000000000000000600052603260045260246000fd5b90600052602060002090600402016040518060800160405290816000820160009054906101000a900473ffffffffffffffffffffffffffffffffffffffff1673ffffffffffffffffffffffffffffffffffffffff1673ffffffffffffffffffffffffffffffffffffffff168152602001600182015481526020016002820160009054906101000a900460ff1615151515815260200160038201805461174e9061370d565b80601f016020809104026020016040519081016040528092919081815260200182805461177a9061370d565b80156117c75780601f1061179c576101008083540402835291602001916117c7565b820191906000526020600020905b8154815290600101906020018083116117aa57829003601f168201915b5050505050815250509050806000015181602001518260400151935093509350509250925092565b6060600254821115611836576040517f08c379a000000000000000000000000000000000000000000000000000000000815260040161182d906133db565b60405180910390fd5b60016000838152602001908152602001600020805480602002602001604051908101604052809291908181526020016000905b828210156119a857838290600052602060002090600402016040518060800160405290816000820160009054906101000a900473ffffffffffffffffffffffffffffffffffffffff1673ffffffffffffffffffffffffffffffffffffffff1673ffffffffffffffffffffffffffffffffffffffff168152602001600182015481526020016002820160009054906101000a900460ff161515151581526020016003820180546119179061370d565b80601f01602080910402602001604051908101604052809291908181526020018280546119439061370d565b80156119905780601f1061196557610100808354040283529160200191611990565b820191906000526020600020905b81548152906001019060200180831161197357829003601f168201915b50505050508152505081526020019060010190611869565b505050509050919050565b6060600080600190505b6002548111611acd5760005b6001600083815260200190815260200160002080549050811015611ab9578473ffffffffffffffffffffffffffffffffffffffff16600160008481526020019081526020016000208281548110611a49577f4e487b7100000000000000000000000000000000000000000000000000000000600052603260045260246000fd5b906000526020600020906004020160000160009054906101000a900473ffffffffffffffffffffffffffffffffffffffff1673ffffffffffffffffffffffffffffffffffffffff161415611aa6578280611aa29061373f565b9350505b8080611ab19061373f565b9150506119c9565b508080611ac59061373f565b9150506119bd565b5060008167ffffffffffffffff811115611b10577f4e487b7100000000000000000000000000000000000000000000000000000000600052604160045260246000fd5b604051908082528060200260200182016040528015611b4957816020015b611b366127cb565b815260200190600190039081611b2e5790505b509050600080600190505b6002548111611e195760005b6001600083815260200190815260200160002080549050811015611e05578673ffffffffffffffffffffffffffffffffffffffff16600160008481526020019081526020016000208281548110611be0577f4e487b7100000000000000000000000000000000000000000000000000000000600052603260045260246000fd5b906000526020600020906004020160000160009054906101000a900473ffffffffffffffffffffffffffffffffffffffff1673ffffffffffffffffffffffffffffffffffffffff161415611df257600160008381526020019081526020016000208181548110611c79577f4e487b7100000000000000000000000000000000000000000000000000000000600052603260045260246000fd5b90600052602060002090600402016040518060800160405290816000820160009054906101000a900473ffffffffffffffffffffffffffffffffffffffff1673ffffffffffffffffffffffffffffffffffffffff1673ffffffffffffffffffffffffffffffffffffffff168152602001600182015481526020016002820160009054906101000a900460ff16151515158152602001600382018054611d1d9061370d565b80601f0160208091040260200160405190810160405280929190818152602001828054611d499061370d565b8015611d965780601f10611d6b57610100808354040283529160200191611d96565b820191906000526020600020905b815481529060010190602001808311611d7957829003601f168201915b505050505081525050848481518110611dd8577f4e487b7100000000000000000000000000000000000000000000000000000000600052603260045260246000fd5b60200260200101819052508280611dee9061373f565b9350505b8080611dfd9061373f565b915050611b60565b508080611e119061373f565b915050611b54565b50819350505050919050565b6060600060025467ffffffffffffffff811115611e6b577f4e487b7100000000000000000000000000000000000000000000000000000000600052604160045260246000fd5b604051908082528060200260200182016040528015611ea457816020015b611e9161274f565b815260200190600190039081611e895790505b5090506000600190505b600254811161215c57600080828152602001908152602001600020604051806101200160405290816000820160009054906101000a900473ffffffffffffffffffffffffffffffffffffffff1673ffffffffffffffffffffffffffffffffffffffff1673ffffffffffffffffffffffffffffffffffffffff168152602001600182018054611f3b9061370d565b80601f0160208091040260200160405190810160405280929190818152602001828054611f679061370d565b8015611fb45780601f10611f8957610100808354040283529160200191611fb4565b820191906000526020600020905b815481529060010190602001808311611f9757829003601f168201915b50505050508152602001600282018054611fcd9061370d565b80601f0160208091040260200160405190810160405280929190818152602001828054611ff99061370d565b80156120465780601f1061201b57610100808354040283529160200191612046565b820191906000526020600020905b81548152906001019060200180831161202957829003601f168201915b50505050508152602001600382015481526020016004820160009054906101000a900460ff161515151581526020016004820160019054906101000a900473ffffffffffffffffffffffffffffffffffffffff1673ffffffffffffffffffffffffffffffffffffffff1673ffffffffffffffffffffffffffffffffffffffff168152602001600582015481526020016006820160009054906101000a900460ff1615151515815260200160078201548152505082600183612107919061364f565b8151811061213e577f4e487b7100000000000000000000000000000000000000000000000000000000600052603260045260246000fd5b602002602001018190525080806121549061373f565b915050611eae565b508091505090565b8060008082815260200190815260200160002060040160019054906101000a900473ffffffffffffffffffffffffffffffffffffffff1673ffffffffffffffffffffffffffffffffffffffff163373ffffffffffffffffffffffffffffffffffffffff1614612208576040517f08c379a00000000000000000000000000000000000000000000000000000000081526004016121ff9061335b565b60405180910390fd5b60008083815260200190815260200160002060040160009054906101000a900460ff161561226b576040517f08c379a0000000000000000000000000000000000000000000000000000000008152600401612262906133bb565b60405180910390fd5b600160008084815260200190815260200160002060040160006101000a81548160ff02191690831515021790555042600080848152602001908152602001600020600501819055507f60d8df137e489b6216738e436244ca4700bd6d0c8371d3c8d9c80b54538111b9826040516122e2919061341d565b60405180910390a15050565b6122f661274f565b600080838152602001908152602001600020604051806101200160405290816000820160009054906101000a900473ffffffffffffffffffffffffffffffffffffffff1673ffffffffffffffffffffffffffffffffffffffff1673ffffffffffffffffffffffffffffffffffffffff16815260200160018201805461237a9061370d565b80601f01602080910402602001604051908101604052809291908181526020018280546123a69061370d565b80156123f35780601f106123c8576101008083540402835291602001916123f3565b820191906000526020600020905b8154815290600101906020018083116123d657829003601f168201915b5050505050815260200160028201805461240c9061370d565b80601f01602080910402602001604051908101604052809291908181526020018280546124389061370d565b80156124855780601f1061245a57610100808354040283529160200191612485565b820191906000526020600020905b81548152906001019060200180831161246857829003601f168201915b50505050508152602001600382015481526020016004820160009054906101000a900460ff161515151581526020016004820160019054906101000a900473ffffffffffffffffffffffffffffffffffffffff1673ffffffffffffffffffffffffffffffffffffffff1673ffffffffffffffffffffffffffffffffffffffff168152602001600582015481526020016006820160009054906101000a900460ff161515151581526020016007820154815250509050919050565b8060008082815260200190815260200160002060000160009054906101000a900473ffffffffffffffffffffffffffffffffffffffff1673ffffffffffffffffffffffffffffffffffffffff163373ffffffffffffffffffffffffffffffffffffffff16146125e3576040517f08c379a00000000000000000000000000000000000000000000000000000000081526004016125da906132db565b60405180910390fd5b60008083815260200190815260200160002060060160009054906101000a900460ff1615612646576040517f08c379a000000000000000000000000000000000000000000000000000000000815260040161263d906132fb565b60405180910390fd5b600160008084815260200190815260200160002060060160006101000a81548160ff02191690831515021790555042600080848152602001908152602001600020600701819055507ffc534544f8ed1b516bf078b4ae88509d8f81f4fafefb10e9aad53e3e1fbce9bb826040516126bd919061341d565b60405180910390a15050565b8280546126d59061370d565b90600052602060002090601f0160209004810192826126f7576000855561273e565b82601f1061271057805160ff191683800117855561273e565b8280016001018555821561273e579182015b8281111561273d578251825591602001919060010190612722565b5b50905061274b919061280b565b5090565b604051806101200160405280600073ffffffffffffffffffffffffffffffffffffffff168152602001606081526020016060815260200160008152602001600015158152602001600073ffffffffffffffffffffffffffffffffffffffff16815260200160008152602001600015158152602001600081525090565b6040518060800160405280600073ffffffffffffffffffffffffffffffffffffffff16815260200160008152602001600015158152602001606081525090565b5b8082111561282457600081600090555060010161280c565b5090565b600061283b6128368461352a565b6134f9565b90508281526020810184848401111561285357600080fd5b61285e8482856136cb565b509392505050565b60008135905061287581613826565b92915050565b600082601f83011261288c57600080fd5b813561289c848260208601612828565b91505092915050565b6000813590506128b48161383d565b92915050565b6000602082840312156128cc57600080fd5b60006128da84828501612866565b91505092915050565b6000806000606084860312156128f857600080fd5b600084013567ffffffffffffffff81111561291257600080fd5b61291e8682870161287b565b935050602084013567ffffffffffffffff81111561293b57600080fd5b6129478682870161287b565b9250506040612958868287016128a5565b9150509250925092565b60006020828403121561297457600080fd5b6000612982848285016128a5565b91505092915050565b6000806040838503121561299e57600080fd5b60006129ac858286016128a5565b92505060206129bd858286016128a5565b9150509250929050565b6000806000606084860312156129dc57600080fd5b60006129ea868287016128a5565b93505060206129fb868287016128a5565b925050604084013567ffffffffffffffff811115612a1857600080fd5b612a248682870161287b565b9150509250925092565b6000612a3a8383612f20565b905092915050565b6000612a4e8383612f83565b905092915050565b612a5f81613683565b82525050565b612a6e81613683565b82525050565b6000612a7f8261357a565b612a8981856135b5565b935083602082028501612a9b8561355a565b8060005b85811015612ad75784840389528151612ab88582612a2e565b9450612ac38361359b565b925060208a01995050600181019050612a9f565b50829750879550505050505092915050565b6000612af482613585565b612afe81856135c6565b935083602082028501612b108561356a565b8060005b85811015612b4c5784840389528151612b2d8582612a42565b9450612b38836135a8565b925060208a01995050600181019050612b14565b50829750879550505050505092915050565b612b6781613695565b82525050565b612b7681613695565b82525050565b6000612b8782613590565b612b9181856135d7565b9350612ba18185602086016136da565b612baa81613815565b840191505092915050565b6000612bc082613590565b612bca81856135e8565b9350612bda8185602086016136da565b612be381613815565b840191505092915050565b6000612bfb6014836135e8565b91507f50726f6a656374206e6f7420617070726f7665640000000000000000000000006000830152602082019050919050565b6000612c3b6026836135e8565b91507f436c69656e742063616e6e6f7420626964206f6e207468656972206f776e207060008301527f726f6a65637400000000000000000000000000000000000000000000000000006020830152604082019050919050565b6000612ca16023836135e8565b91507f4f6e6c7920636c69656e742063616e20706572666f726d20746869732061637460008301527f696f6e00000000000000000000000000000000000000000000000000000000006020830152604082019050919050565b6000612d076018836135e8565b91507f50726f6a65637420616c726561647920617070726f76656400000000000000006000830152602082019050919050565b6000612d47601f836135e8565b91507f41206269642068617320616c7265616479206265656e206163636570746564006000830152602082019050919050565b6000612d876017836135e8565b91507f417070726f76616c20706572696f6420657870697265640000000000000000006000830152602082019050919050565b6000612dc76030836135e8565b91507f4f6e6c7920616363657074656420667265656c616e6365722063616e2070657260008301527f666f726d207468697320616374696f6e000000000000000000000000000000006020830152604082019050919050565b6000612e2d6020836135e8565b91507f427564676574206d7573742062652067726561746572207468616e207a65726f6000830152602082019050919050565b6000612e6d6011836135e8565b91507f496e76616c69642062696420696e6465780000000000000000000000000000006000830152602082019050919050565b6000612ead6019836135e8565b91507f50726f6a65637420616c726561647920636f6d706c65746564000000000000006000830152602082019050919050565b6000612eed6016836135e8565b91507f50726f6a65637420646f6573206e6f74206578697374000000000000000000006000830152602082019050919050565b6000608083016000830151612f386000860182612a56565b506020830151612f4b602086018261311b565b506040830151612f5e6040860182612b5e565b5060608301518482036060860152612f768282612b7c565b9150508091505092915050565b600061012083016000830151612f9c6000860182612a56565b5060208301518482036020860152612fb48282612b7c565b91505060408301518482036040860152612fce8282612b7c565b9150506060830151612fe3606086018261311b565b506080830151612ff66080860182612b5e565b5060a083015161300960a0860182612a56565b5060c083015161301c60c086018261311b565b5060e083015161302f60e0860182612b5e565b5061010083015161304461010086018261311b565b508091505092915050565b6000610120830160008301516130686000860182612a56565b50602083015184820360208601526130808282612b7c565b9150506040830151848203604086015261309a8282612b7c565b91505060608301516130af606086018261311b565b5060808301516130c26080860182612b5e565b5060a08301516130d560a0860182612a56565b5060c08301516130e860c086018261311b565b5060e08301516130fb60e0860182612b5e565b5061010083015161311061010086018261311b565b508091505092915050565b613124816136c1565b82525050565b613133816136c1565b82525050565b60006101208201905061314f600083018c612a65565b8181036020830152613161818b612bb5565b90508181036040830152613175818a612bb5565b9050613184606083018961312a565b6131916080830188612b6d565b61319e60a0830187612a65565b6131ab60c083018661312a565b6131b860e0830185612b6d565b6131c661010083018461312a565b9a9950505050505050505050565b60006060820190506131e96000830186612a65565b6131f6602083018561312a565b6132036040830184612b6d565b949350505050565b60006080820190506132206000830187612a65565b61322d602083018661312a565b61323a6040830185612b6d565b818103606083015261324c8184612bb5565b905095945050505050565b600060208201905081810360008301526132718184612a74565b905092915050565b600060208201905081810360008301526132938184612ae9565b905092915050565b600060208201905081810360008301526132b481612bee565b9050919050565b600060208201905081810360008301526132d481612c2e565b9050919050565b600060208201905081810360008301526132f481612c94565b9050919050565b6000602082019050818103600083015261331481612cfa565b9050919050565b6000602082019050818103600083015261333481612d3a565b9050919050565b6000602082019050818103600083015261335481612d7a565b9050919050565b6000602082019050818103600083015261337481612dba565b9050919050565b6000602082019050818103600083015261339481612e20565b9050919050565b600060208201905081810360008301526133b481612e60565b9050919050565b600060208201905081810360008301526133d481612ea0565b9050919050565b600060208201905081810360008301526133f481612ee0565b9050919050565b60006020820190508181036000830152613415818461304f565b905092915050565b6000602082019050613432600083018461312a565b92915050565b600060408201905061344d600083018561312a565b61345a6020830184612a65565b9392505050565b600060a082019050613476600083018861312a565b6134836020830187612a65565b81810360408301526134958186612bb5565b905081810360608301526134a98185612bb5565b90506134b8608083018461312a565b9695505050505050565b60006060820190506134d7600083018661312a565b6134e46020830185612a65565b6134f1604083018461312a565b949350505050565b6000604051905081810181811067ffffffffffffffff821117156135205761351f6137e6565b5b8060405250919050565b600067ffffffffffffffff821115613545576135446137e6565b5b601f19601f8301169050602081019050919050565b6000819050602082019050919050565b6000819050602082019050919050565b600081519050919050565b600081519050919050565b600081519050919050565b6000602082019050919050565b6000602082019050919050565b600082825260208201905092915050565b600082825260208201905092915050565b600082825260208201905092915050565b600082825260208201905092915050565b6000613604826136c1565b915061360f836136c1565b9250827fffffffffffffffffffffffffffffffffffffffffffffffffffffffffffffffff0382111561364457613643613788565b5b828201905092915050565b600061365a826136c1565b9150613665836136c1565b92508282101561367857613677613788565b5b828203905092915050565b600061368e826136a1565b9050919050565b60008115159050919050565b600073ffffffffffffffffffffffffffffffffffffffff82169050919050565b6000819050919050565b82818337600083830152505050565b60005b838110156136f85780820151818401526020810190506136dd565b83811115613707576000848401525b50505050565b6000600282049050600182168061372557607f821691505b60208210811415613739576137386137b7565b5b50919050565b600061374a826136c1565b91507fffffffffffffffffffffffffffffffffffffffffffffffffffffffffffffffff82141561377d5761377c613788565b5b600182019050919050565b7f4e487b7100000000000000000000000000000000000000000000000000000000600052601160045260246000fd5b7f4e487b7100000000000000000000000000000000000000000000000000000000600052602260045260246000fd5b7f4e487b7100000000000000000000000000000000000000000000000000000000600052604160045260246000fd5b6000601f19601f8301169050919050565b61382f81613683565b811461383a57600080fd5b50565b613846816136c1565b811461385157600080fd5b5056fea2646970667358221220856a8ede9649a6ddb5d849685798061ad5722700b0824cd3d70c2a467b33437264736f6c63430008000033",
  "linkReferences": {},
  "deployedLinkReferences": {}
}